:020000040800F2
:10000000780700204D0200080F290008D7230008B8
:100010000D290008B31400082D2B00080000000073
:10002000000000000000000000000000132900088C
:10003000B514000800000000112900081529000867
:1000400067020008670200086702000867020008EC
:1000500067020008670200086702000867020008DC
:1000600067020008670200086702000867020008CC
:1000700067020008670200086702000867020008BC
:10008000670200086702000867020008000000001D
:1000900000000000000000000000000067020008EF
:1000A000670200086702000867020008670200088C
:1000B000670200086702000867020008670200087C
:1000C000670200086702000867020008670200086C
:1000D00067020008670200086702000800000000CD
:1000E00067020008670200086702000800000000BD
:1000F000000000000000000000000000670200088F
:10010000000000006702000867020008670200089C
:1001100000000000000000000000000000000000DF
:10012000670200086702000867020008670200080B
:10013000670200080000000000000000000000004E
:10014000000000000000000000000000670200083E
:1001500067020008670200086702000867020008DB
:1001600067020008670200080000000000000000AD
:10017000000000000000000000000000000000007F
:1001800000000000670200080000000000000000FE
:100190006702000800F002F800F049F80AA090E8B1
:1001A000000C82448344AAF10107DA4501D100F032
:1001B0003EF8AFF2090EBAE80F0013F0010F18BFB6
:1001C000FB1A43F001031847F443000014440000F5
:1001D000103A24BF78C878C1FAD8520724BF30C873
:1001E00030C144BF04680C60704700000023002445
:1001F00000250026103A28BF78C1FBD8520728BF37
:1002000030C148BF0B607047662904F0248100208C
:1002100070471FB504F015F900F04AFC04000020F7
:10022000002103F041FBE0601FBD10B510BD00F0E0
:1002300043FD1146FFF7EDFF03F018F900F061FDF3
:1002400003B4FFF7F2FF03BC00F064FD09488047E8
:1002500009480047FEE7FEE7FEE7FEE7FEE7FEE7A8
:10026000FEE7FEE7FEE7FEE704480549054A064BC0
:1002700070470000AD2900089501000878010020B2
:1002800078070020780300207803002053EA020C4E
:1002900000F069802DE9F04B4FF00006002B1FBFE6
:1002A000B3FA83F503FA05F424FA05F65E4012BFAB
:1002B0001643B2FA82F502FA05F4C5F120051EBF15
:1002C00022FA05FC44EA0C04203556EA044C4FEAB5
:1002D000144418BF641C4FF000084FF0000990420E
:1002E00071EB030C39D3002919BFB1FA81F701FA78
:1002F00007F6B0FA80F700FA07F6C7F120071EBF2D
:1003000020FA07FC46EA0C062037B6FBF4FCA7EB04
:100310000507103F07F01F0BCBF120060CFA0BFB73
:100320002CFA06F644BFB3460026202FA4BF5E4633
:100330004FF0000B5BEA060C08BF4FF0010B19EB06
:100340000B09ABFB027C48EB0608C01B06FB02CC8A
:100350000BFB03CC71EB0C01C1E70B460246414697
:100360004846BDE8F08B13B54FF000004FF0000198
:10037000AFF30080BDE81C40704700000FB41CB50F
:10038000074B06AA7B4469460090059800F077FB6E
:100390000020694600F086FB1CBC5DF814FB0000E1
:1003A0001D0700002DE9F05F894604464FF0000A62
:1003B000DFF874B1FB44C0F820A02046E16888470C
:1003C000002874D0252806D0D4E901219047206A5E
:1003D000401C2062F1E700265F462046E16888471E
:1003E0002028054607DB312D05D2781910F8200C9E
:1003F00008B10643F1E7B00701D526F00406C4F8BA
:100400001CA00027C4F818A02A2D09D0284602F005
:1004100003FF38B304EB8708303DC8F8185019E0E3
:1004200059F8041B204604EB87029161E168884774
:10043000012F054618D1E069002820DA26F02006B1
:100440001DE0D8F8180000EB800005EB40003038C4
:10045000C8F818002046E1688847054602F0DCFE2F
:100460000028EED1012F0AD02E2D08D12046E168B8
:1004700088477F1C0546022F46F02006C4DBA06992
:10048000002803DA404246F00106A061F00701D0DF
:1004900026F010066C2D0BD0682D09D04C2D39D0CC
:1004A0006A2D35D0742D35D07A2D33D016E038E052
:1004B000E1682F4620468847B842054609D16C2F8F
:1004C00026D04FF48060E168064320468847054601
:1004D00004E06C2F1AD04FF4807006430DB3A5F1E1
:1004E0004100192802D8203546F400664A462946BC
:1004F000204626604E46FFF787FE80B101280BD0CC
:10050000F61D26F0070000F1080956E74020E4E751
:100510008020D8E70020D6E706F104094DE72846F9
:1005200052E7206ABDE8F09FBA40000010B5431CB6
:1005300002E010F8011B71B18107FAD14FF00132CE
:1005400002C88C1A8C4314EAC211F9D0C01A0A06E8
:1005500003D0C01E10BDC01A10BD0A0401D0801EF9
:1005600010BD0902FCD0401E10BD4FF0000200B5C6
:10057000134694469646203922BFA0E80C50A0E8C6
:100580000C50B1F12001BFF4F7AF090728BFA0E874
:100590000C5048BF0CC05DF804EB890028BF40F840
:1005A000042B08BF704748BF20F8022B11F0804F82
:1005B00018BF00F8012B70474FF0013C50F8042B96
:1005C00051F8043B9A4221D1A2EB0C03934313EA66
:1005D000CC1317D150F8042B51F8043B9A4215D193
:1005E000A2EB0C03934313EACC130BD150F8042B6A
:1005F00051F8043B9A4209D1A2EB0C03934313EA4E
:10060000CC13DBD04FF00000704700BFD01A01BA06
:10061000B1FA81F101F0180122FA01F0CB40C1F1E9
:100620002001DBB2C0B2C01A2CFA01F3D11A9143F7
:1006300011EAC311E6D1704770477047704710B593
:1006400000F03AFA006810BD10B5044600F034FA24
:10065000046010BD70472DE9FF4F0C461E464FF059
:10066000FF378BB0D2E90001DDF860800A908A463E
:10067000C1F30A5505B93D46002108464FF0000078
:10068000BAF1000F00F4400005DA00EB80004FF4EF
:10069000400101EA50004FEA9059B9F1010F00DD25
:1006A000B9460A9850EA4A000ED044F61050A5F216
:1006B000FF3545432F14B8F1000F1ED07542291E97
:1006C0001EDDC9F100021CE0B8F1010F4FF000007F
:1006D00001D0302103E0F24305E02154401CB04238
:1006E000FBDB30460022002121540B99C1F8088021
:1006F000C1E900200FB0BDE8F08FBD1B6D1CDEE727
:100700004A4600DA694206A800F060FA06AB93E8B0
:10071000070003AB83E8070050460A9900F001FB8D
:100720008DE80700A0F500501F3800900398002DB9
:100730000ADD42F21F014A460844002303A9039040
:10074000684600F06AFD09E0A0F500504A461F38EF
:10075000002303A90390684600F074FD8DE80700AC
:100760000004000C03D04FF0FF30410800E01046B9
:10077000B8F1000F03D00022009215461EE0751E4E
:1007800005D400F09DF9303262556D1EF9D5B3469F
:100790000122084302D000227F1C04E02078302888
:1007A00001D100227F1E002A099784D01DE0112D5F
:1007B00007DA00F085F9303262556D1C50EA01020B
:1007C000F5D1084302D00098C8B10EE00021681EA0
:1007D00005E0235C625C63542254401E491C814244
:1007E000F7DBAB46A81B401E0990002004F80B0065
:1007F0000B98099AC0F80880C0E9002B7AE7112607
:100800004FF0000857E72DE9F04F88460446D21D07
:1008100022F0070191B0D1E90001CDE90A0102F00F
:1008200086F902460B98C00F01D02D2007E0206802
:10083000810701D52B2002E0202101EAC000032A14
:10084000099001D0072A05DB03464146204600F007
:100850007DF90BE12078800601D5E06900E00620F3
:10086000B8F1650F814606D0B8F1660F18D0B8F11F
:10087000670F70D131E00020B9F1110F009001DB5A
:10088000112301E009F101030AAA01A90CA8FFF74D
:10089000E2FEDDE90C70002609F10105834647E020
:1008A00001204B4600904FF000470AAA01A90CA86E
:1008B000FFF7D1FEDDE90DB00C995D46002610B9B9
:1008C00009F101000D18B9EB050003D4C0F1FF36A2
:1008D00009F10105A5EB09002BE0B9F1010F01DADF
:1008E0004FF001090020B9F1110F0090484601DDD9
:1008F000112300E003460AAA01A90CA8FFF7ABFEEA
:10090000DDE90C704D4600268346207800070AD4A6
:10091000AB4500DA5D4601A8012D04DD411911F84F
:10092000011C302907D04F4502DA17F1040F04DA11
:10093000012082460FE06D1EEEE7002F02DCED1B6A
:100940003E4403E0781CA84200DD7D1CB81B00F18A
:10095000010A4FF000472078000703D4AA4501DBC5
:100960004FF0FF3A0021B7F1004F0DF143088DF829
:10097000431024D002202B23002F01DA7F422D23A5
:100980000A21021EA0F1010000DC5FB197FBF1FC1F
:1009900097FBF1F201FB1C7C17460CF1300C08F8B8
:1009A00001CDEEE7A8F1010003702188090501D50A
:1009B000452100E06521A0F1010800F8011C09981B
:1009C0000FA9A1EB0807FF1D00B10120411901EBA0
:1009D000EA70A1693844081A401EA0612078C00658
:1009E00002D42046AFF30080099828B1D4E9012150
:1009F0009047206A401C20622078C00622D52046FD
:100A0000AFF300801EE0002E04DBB34502DD01A839
:100A1000805D00E03020D4E901219047206A401C2D
:100A20002062761CAAF101005FEA000A0AD100F0F8
:100A30003FF8C0680168405CD4E901219047206A12
:100A4000401C2062281EA5F10105DCDC07E0D4E98A
:100A5000012118F8010B9047206A401C2062381EC3
:100A6000A7F10107F3DC2046AFF30080032011B0AB
:100A700041E6000001694A1C02610878704700B530
:100A80008FB0CDE901310021059105497944CDE9C7
:100A9000031011466846FFF785FC0FB000BD00004B
:100AA000E5FFFFFF0A6802F8010B0A6070470000CB
:100AB00000487047340100200048704714010020AE
:100AC00030B5B0F10A024FEA900E71F100034EEA20
:100AD000817EB0EB0E0061EB91014FEA101E4EEAF1
:100AE000017E10EB0E0041EB11114FEA102E4EEA81
:100AF000016E10EB0E0041EB11214FEA104E4EEA51
:100B0000014E10EB0E0041EB1141401841F1000184
:100B10004FEAD00040EA41704FEAD10110EB800566
:100B20004FEA810444EA907444EB01046D1944EBEC
:100B30000404521BA3414FF0000348BF0A3200D502
:100B400030BD401C41F1000130BD00002DE9F041F5
:100B50001F46044603260168072A01F4006004DBEF
:100B600008B116A505E016A503E008B115A500E03B
:100B700015A521F010002060A069C01EA0610FB172
:100B8000401EA0612046AFF300804FB1D4E901219F
:100B900038469047206A401C2062C01C206206E054
:100BA000206AFAE7D4E9012115F8010B9047761E77
:100BB000F8D22046AFF30080BDE8F0814E414E00F0
:100BC0006E616E00494E4600696E66002DE9F04781
:100BD000814616468AB0354878440DC88DE80D0028
:100BE00032487844801C03AC0DC884E80D0041F6FF
:100BF0009B300844372190FBF1F290FBF1F5A5F111
:100C0000800501FB12041B3C02D56442012000E078
:100C10000020DFF898A080460027FA44AAF1BE0A17
:100C20000EE0E0070AD03246684607EB4701012391
:100C30000AEB810100F006FB8DE8070064107F1CC1
:100C4000002CEED1194F7F44AE3F19E0E80715D0D4
:100C500007EB04100DF1180A90E80E008AE80E0068
:100C6000C068F04201D1981908903246012306A9C4
:100C700003A800F0E7FA03AB83E807006D10641CDB
:100C8000002DE3D14FF0010332466946B8F1000F61
:100C900003A802D000F0C1FA01E000F0D3FAC9E9DC
:100CA0000001C9F808200AB0BDE8F087C839000083
:100CB00000487047140100207546FFF7F9FFAE4663
:100CC00005006946534620F00700854618B020B558
:100CD000FFF7CAFABDE820404FF000064FF00007CA
:100CE0004FF000084FF0000B21F00701AC46ACE8D4
:100CF000C009ACE8C009ACE8C009ACE8C0098D4641
:100D0000704710B50446AFF300802046BDE81040A0
:100D1000FFF796BA01491820ABBEFEE72600020095
:100D200070475FEA400C08BF91F0000F4FEA8C2338
:100D30004FEAC12243EA51514FEA1C5018BF00F557
:100D4000F0404FEA300018BF41F000415FEA6C5CB0
:100D500000F02980BCF1FF3F08BF40F080407047A1
:100D6000130C06BF12044FF0100C4FF0000C130EC2
:100D700004BF12020CF1080C130F04BF12010CF196
:100D8000040C930F04BF92000CF1020CD30F04BFAC
:100D900052000CF1010C11464FF00002A0F11F00AF
:100DA000A0EB0C00704711F0004F08BF704731F006
:100DB00000413FF4D5AF0B0C06BF09044FF0100CF7
:100DC0004FF0000C0B0E04BF09020CF1080C0B0FC6
:100DD00004BF09010CF1040C8B0F04BF89000CF156
:100DE000020CCB0F04BF49000CF1010CCCF1200325
:100DF000A0EB0C0022FA03F302FA0CF241EA030121
:100E000000F10100704720F07F4C80EA030023F0DE
:100E10007F47ACEB070303F57C5300F0004003F180
:100E2000FF032DE980494FEA154B09B44FEA1443FB
:100E300025EA0B4E24EA03480FF2042606EB13279B
:100E400049083E785FEA320203FB0667C7F50007F0
:100E500007FB06F64FEA54374FEAD64606F102067C
:100E600007FB066CCCF1005C4FEA1C472CEA074CF0
:100E700007FB06F40CFB06F504EB15464FEA961645
:100E800034BF00204FF000404FEAD13706FB07FC8B
:100E90004FEA1C4C0CFB0BF7D21B03FB0CF761EB6E
:100EA00007010CFB0EF7B0EB074072EB17420CFB8F
:100EB00008F734BFA2EB0742B2EB074261EB1741E0
:100EC0004FEA0C444FEA910706FB07FC4FEA1C4C23
:100ED0000CFB0BF7B0EBC74072EB573203FB0CF780
:100EE00034BFA2EBC742B2EBC74261EB57310CFBF8
:100EF0000EF7B0EBC70072EB57720CFB08F734BF6C
:100F0000A2EBC702B2EBC70261EB5771039F4FEA36
:100F1000816141EA921104EBCC044FEAD1374FEAE8
:100F2000826206FB07FC42EA90124FEA80604FEAB9
:100F30001C4C0CFB0BF7D21B03FB0CF761EB0701FE
:100F40000CFB0EF7B0EB074072EB17420CFB08F7F7
:100F500034BFA2EB0742B2EB074261EB17414FEA05
:100F60008C554FEA910704EB9C2406FB07FC4FEAE3
:100F70001C4C0CFB0BF7B0EBC74072EB573203FB7A
:100F80000CF734BFA2EBC742B2EBC74261EB57315B
:100F90000CFB0EF7B0EBC70072EB57720CFB08F7B7
:100FA00034BFA2EBC702B2EBC70261EB577115EB7E
:100FB0004C254FEA816141EA92114FEA82624FEA81
:100FC000D13742EA901206FB07FC44F100044FEAD5
:100FD00080604FEA1C4C0CFB0BF7D21B03FB0CF799
:100FE00061EB07010CFB0EF7B0EB074072EB174209
:100FF0000CFB08F734BFA2EB0742B2EB074261EBF0
:10100000174115EB1C154FEA813141EA92414FEA35
:10101000823242EA90424FEA80304FEA0C7644F145
:10102000000448EA03434EEA0B484FF0000EB2EBCF
:10103000080C71EB030724BF624639464EEB0E0ED7
:101040004FF0000B0018524149414BEB0B0BB2EB38
:10105000080C71EB03077BF1000B24BF6246394695
:101060004EEB0E0E4FF0000B0018524149414BEB76
:101070000B0BB2EB080C71EB03077BF1000B24BFE9
:10108000624639464EEB0E0E51EA020718BF46F093
:10109000010616EB0E7655F1000254F1000103D55E
:1010A000BDE88901BDE80088BDE88901BDE80048C8
:1010B000B619524141EB0101A3F101037047808051
:1010C0007F7E7D7C7B7A79787776767574737271A2
:1010D00071706F6E6E6D6C6C6B6A6A69686867665A
:1010E00066656464636362616160605F5F5E5E5DEC
:1010F0005D5C5C5B5B5A5A59595858575756565560
:1011000055555454535352525251515050504F4FC1
:101110004F4E4E4D4D4D4C4C4C4B4B4B4A4A4A4911
:101120004949484848474747474646464545454454
:101130004444444343434342424242414141002BE1
:101140009C4630D477002BD01CB54FEA370703B448
:101150004FF010004FF01001BAF1000F06D0BCF1B3
:10116000000FDCBF40F0080040F008014FF0000025
:101170000FBCBDE810400BF1010BBBF1010F08BF24
:101180005FEA170722BF12F1010211F101014FF0CE
:10119000004143F1000300F0004043EA00007047C3
:1011A000F9D35708D0E746EA064613F1400F4FEA55
:1011B00016461FDD13F1200FDFBF16430A4600213C
:1011C00020335B42BED0C3F1200746EA064602FA4E
:1011D00007F74FEA164646EA0706C3F1200722FA48
:1011E00003F201FA07F721FA03F14FF0000342EA94
:1011F0000702A7E746EA020646EA06464FEA16460F
:1012000046EA0106BCBF46EA0646360C4FF000032C
:101210004FF000024FF0000194E72DE9804C9A4610
:10122000934670B491E8380007C831EA400C48BFD3
:1012300034EA430C03D5FFF7E6FDFFF780FFF0BC6F
:10124000BDE8008C2DE9804C9A46934670B491E835
:10125000380007C810F0804F08BF13F0804F03D14B
:1012600000F005F8FFF76BFFF0BCBDE8008C20F044
:101270007F4780EA030023F07F4C07EB0C03A3F5C4
:101280007C5300F00040A3F1FE0392F0000F00F049
:10129000B38095F0000F00F077802DE901494FEA07
:1012A00011404FEA144621EA004800FB06FC24EAFC
:1012B000064708FB06F607FB08F800FB07F718EBE4
:1012C00006484CEB164C4FEA124B18EB07484FEA16
:1012D00015464CEB174022EA0B4E0BFB06FC25EAA9
:1012E00006470EFB06F607FB0EFE0BFB07F71EEB91
:1012F000064E4CEB164C4FF000061EEB074E4CEB27
:10130000174B18EB0B0840F1000018EB0E0B58EBD5
:10131000000840F100008F1A4FF000013CBFC943A4
:10132000661B14BFB5EB040C00213CBFC943F61B80
:101330004FEA17444EEA8E0E27EA04454FEA1C474F
:1013400004FB07622CEA074C05FB07F70CFB05F6CC
:1013500004FB0CFC16EB074642EB174216EB0C465F
:1013600042EB1C421BEB060658EB0202414146EAE7
:101370009E0601D5BDE80189B619524141EB010134
:10138000A3F10103BDE801894FEA14454FEA114773
:1013900024EA054621EA074C05FB07F406FB07F79C
:1013A0000CFB06F105FB0CFC11EB074144EB174469
:1013B0004FEA124711EB0C4144EB1C4422EA074C64
:1013C00005FB07F206FB07F70CFB06F605FB0CFC1A
:1013D00016EB074642EB174216EB0C4642EB1C4558
:1013E0006A1854F1000148BF7047B619524141EBE9
:1013F0000101A3F10103704795F0000F37D04FEAC8
:1014000011424FEA144721EA024624EA074C02FB44
:1014100007F106FB07F70CFB06F402FB0CFC14EBD0
:10142000074441EB17414FEA154714EB0C4441EBDD
:101430001C4125EA074C02FB07F506FB07F70CFBEE
:1014400006F602FB0CFC16EB074645EB174516EBC0
:101450000C4645EB1C42121951F1000148BF704780
:10146000B619524141EB0101A3F1010370474FEA64
:1014700014454FEA114724EA054621EA074C05FBCB
:1014800007F106FB07F70CFB06F24FF0000605FB21
:101490000CFC12EB074241EB174112EB0C4251EBF3
:1014A0001C4148BF7047921841EB0101A3F10103B1
:1014B0007047FEE7704772B6FEE7000070B504465D
:1014C00000F002F90546601C02D00448007804448C
:1014D00000F0FAF8401BA042FAD370BD480000208B
:1014E0002DE9F84FDFF8B4A1002201240AF1040B22
:1014F00003254FF00F090BF1040E00BF0B6804FA2F
:1015000002F63340B34272D10F7907F00307012F7F
:1015100001D0022F16D187684FEA420805FA08FC6D
:1015200027EA0C07D1F80CC00CFA08FC4CEA070CAF
:10153000C0F808C04768B7430E79C6F30016964056
:101540003E4346600E79F643B6070DD0C768560095
:1015500005FA06FC27EA0C07D1F808C00CFA06FCCD
:101560004CEA070CC0F80CC00E7906F00306022EF8
:1015700010D1D60800EB8608D8F8206057074FEA4C
:10158000D76C09FA0CF7BE430F6907FA0CF737431B
:10159000C8F8207006684FEA420C05FA0CF7BE4303
:1015A0000F7907F0030707FA0CF7374307604E6817
:1015B000F6006DD53A4E376847F480473760366895
:1015C00022F0030706F480460096364E07EB060C21
:1015D000DCF8086897073F0F09FA07F826EA0806BB
:1015E000DFF8C480404503D14FF000081EE04FE013
:1015F000DFF8B880404502D14FF0010816E0DFF86F
:10160000B080404502D14FF002080FE0DFF8A4801F
:10161000404502D14FF0030808E0DFF89C804045C8
:1016200002D14FF0040801E04FF0070808FA07F86C
:1016300048EA0608CCF80888DAF800605746D1F87E
:1016400004C09E435FEACC3C00D51E433E60DBF8FD
:1016500000605F46D1F804C09E435FEA8C3C00D531
:101660001E433E60DEF800607746D1F804C09E431A
:101670005FEACC2C00D51E433E60084F0C373E6815
:10168000D1F804C09E435FEA8C2C00D51E433E6017
:10169000521C102AFFF432AFBDE8F88F003C014025
:1016A0004438024000300140000002400004024083
:1016B00000080240000C0240001002400AB18161A3
:1016C00070470904FBE7000001488068704700008C
:1016D0004800002070B5040025D094F83D00002596
:1016E00020B984F83C50204600F03EFA242084F8CB
:1016F0003D002068016821F0010101602068016857
:1017000041F4004101602068016821F4004101605A
:1017100000F084FB4D4A6168914201D84C4900E0D9
:101720004C49884201D2012070BD4B492368B0FB6F
:10173000F1F15E6826F03F060E435E6063689342F7
:1017400006D94FF4967359434FF47A73B1FBF3F112
:101750002368491C1E6A26F03F06314319626168FE
:10176000914210D84900401EB0FBF1F2521CC2F366
:101770000B02042A01D2042022E0B0FBF1F0401C4D
:10178000C0F30B001CE0A268F2B301EBC10303EB52
:101790000116431EB3FBF6F35B1C43F480431B05A9
:1017A00049D092B301EBC10202EB0111401EB0FB24
:1017B000F1F0401CC0F30B0040F4804040F40040C6
:1017C0002168CA694CF6FF739A431043C861D4E993
:1017D000071001432068026822F0C0021143016033
:1017E000D4E9030101432068826848F2FF339A4339
:1017F00011438160D4E9050108432168CA6822F0D9
:10180000FF021043C86001E00EE016E020680168A6
:1018100041F0010101602564202084F83D0025632A
:1018200084F83E50002070BD01EB4106431EB3FB1F
:10183000F6F35B1CB3E70120C2E701EB4101401E58
:10184000B0FBF1F0401CC0F30B00B7E7A08601002D
:1018500080841E0000093D0040420F002DE9F84F32
:101860001F4690468A460446DDF82890FFF72CFF75
:10187000054694F83D00202875D1192301226C49B2
:101880002046009500F0AAFE0028F5D194F83C000F
:10189000012868D0012084F83C0020680168C9074D
:1018A00003D1016841F0010101602068016821F461
:1018B00000610160222084F83D00102084F83E0081
:1018C00000262664C4F824806785608D20855948E9
:1018D000E0622B464A465146204600F095FD00281E
:1018E00078D1208D544F68B1012814D00228206887
:1018F000016816D041F48061016020684169806907
:10190000009087E02068416981690091016841F495
:10191000007101607EE02068016821F4806101604F
:10192000F0E721F4806101602068016841F4006102
:10193000E2E7032848D801280AD0022814D04B46F1
:10194000002239462046009500F048FED8BB27E02B
:101950002A464946204600F0C0FEA0BB2068006928
:10196000616A08704DE061E04B460022394620462E
:10197000009500F033FE30BB2068016841F400712F
:10198000016020680069616A0870606A401C6062DA
:10199000218D491E2185618D491E618521682EE0BA
:1019A0002068016821F48061016020680069616A33
:1019B0000870606A401C6062208D401E2085608D2A
:1019C000401E6085D0E705E02A464946204600F0E3
:1019D00084FE10B10120BDE8F88F20680069616ABB
:1019E0000870606A401C6062218D491E2185618DEE
:1019F000491E618521684A69D24352070AD40969A0
:101A00000170606A401C6062208D401E2085608DE0
:101A1000401E6085208D00288BD1202084F83D0059
:101A200084F83E6084F83C600020D4E70220D2E7CE
:101A3000020010000000FFFF040001002DE9F84F34
:101A40001F4690468A460446DDF82890FFF73CFE84
:101A5000054694F83D0020287FD1192301224049F2
:101A60002046009500F0BAFD002876D194F83C009D
:101A7000012872D0012084F83C0020680168C90761
:101A800003D1016841F0010101602068016821F47F
:101A900000610160212084F83D00102084F83E00A0
:101AA00000262664C4F824806785608D20852D4833
:101AB000E0622B464A465146204600F01BFD90B995
:101AC000206841698069009036E02A4649462046F0
:101AD00000F036FE50B1206C042804D12068016863
:101AE00041F4007101600120BDE8F88F606A21684F
:101AF00000780861606A401C6062618D491E6185E2
:101B0000218D491E89B2218522685369DB435B0719
:101B10000BD451B100781061606A401C6062608D26
:101B2000401E6085208D401E20852A46494620465D
:101B300000F02EFD0028CED1208D0028C5D154F80C
:101B40003D0B016841F400710160202004F81E097A
:101B5000E67766770020C7E7FFE70220C4E70000CA
:101B6000020010000000FFFF10B586B004461421EB
:101B70006846FEF7FAFC13492068884220D11248D3
:101B80000021026842F002020260006800F00200D8
:101B90000590C02000901220CDE9010103200390A0
:101BA0000420049069460948FFF79AFC0648103063
:101BB000016841F400110160006800F40010059014
:101BC00006B010BD0054004030380240000402400E
:101BD0000248816802781144816070474800002003
:101BE0000B4810B5016841F400710160016841F4CF
:101BF00080610160016841F480710160032000F0A0
:101C000061F80F2000F006F800F024F8002010BD65
:101C1000003C024070B50D4D04464FF47A712878AF
:101C2000B1FBF0F00A490968B1FBF0F000F0FEFAF0
:101C300048B9102C07D200222146501E00F022F88D
:101C400000206C6070BD012070BD000048000020C5
:101C5000540000200A4808B5016841F48041016041
:101C6000006800F4804000900548001F016841F0C2
:101C700080510160006800F08050009008BD0000B5
:101C800044380240F0B40E4B1B680C46C3F30223E9
:101C9000C3F10705042D00D90425191D072901D218
:101CA000002300E0DB1E012606FA05F1491E214053
:101CB00099409E40761E16403143F0BC00F04FBF65
:101CC0000CED00E0064900F0070208684FF6FF033C
:101CD000184040EA0220034A1043086070470000A1
:101CE0000CED00E00000FA052DE9F0470E46050076
:101CF00065D0DFF81481D8F80000F7B200F00700D3
:101D0000B04207D288F80070D8F8000000F0070051
:101D1000B04254D128683D4C810712D5400703D505
:101D2000206840F4E05020602878000703D5206840
:101D300040F4604020602068A96820F0F00008436B
:101D400020602878C0072DD03049686808390128FC
:101D500012D0022813D0032811D00968890700295E
:101D60002DDA216821F0030101432160FFF7ACFC6B
:101D7000814641F2883A0EE009688903EFE7096875
:101D80008901ECE7FFF7A0FCA0EB0901514502D95E
:101D90000320BDE8F0872068696800F00C00B0EB14
:101DA000810FEFD1D8F80010404601F00701B14291
:101DB00007D90770006800F00700B04201D0012089
:101DC000E7E72878400705D52068E96820F4E05067
:101DD000084320602878000706D52068296920F488
:101DE000604040EAC100206000F038F82168084AED
:101DF000C1F30311515CC8400649086006480068F9
:101E0000FFF708FF0020C4E7003C0240083802400A
:101E10005A440008540000204C00002004480549A2
:101E200000680968044AC1F38221515CC8407047C8
:101E300054000020083802406A440008044805495C
:101E400000680968044AC1F34231515CC8407047D8
:101E500054000020083802406A440008154810B5B4
:101E6000006810F00C02144813D01449042A0FD053
:101E7000082A0ED10F4C241F2268236802F03F026B
:101E80005B0207D52068C0F38810A0FB010106E0C3
:101E9000084610BD2168C1F38811A1FB0001002391
:101EA000FEF7F4F92168C1F30141491C4900B0FB78
:101EB000F1F010BD083802400024F40040787D01A4
:101EC0002DE9F84F04006ED02078DFF84C93C0075E
:101ED000A9F104054AD009F104000168C1F38101A8
:101EE000012908D00068C0F3810002280AD1D9F87E
:101EF0000000400206D52868800337D560680028B6
:101F0000E1D033E06068B0F5803F10D0B0F5A02F8D
:101F1000286810D020F480302860286820F48020C1
:101F200028606068A8B1FFF7CFFB06460DE028687F
:101F300040F48030F4E740F480202860F7E700BFE9
:101F4000FFF7C2FB801B642873D828688003F7D58D
:101F50000CE0FFF7B9FB064605E000BFFFF7B4FB56
:101F6000801B6428F0D828688003F7D42078DFF835
:101F7000AC8280074FF0000A3ED5A748001D0168DB
:101F800011F00C0F08D00068C0F3810002280BD1BB
:101F9000D9F80000400207D42868800716D5E06809
:101FA000012800D112E033E1E068B8B10120C8F89F
:101FB0000000FFF789FB064605E000BFFFF784FB42
:101FC000801B0228C0D828688007F7D528682169B7
:101FD00020F0F80040EAC10028600DE0C8F800A039
:101FE000FFF772FB064604E0FFF76EFB801B02283A
:101FF0001FD828688007F7D42078000722D5864F9D
:1020000087486169703771B101210160FFF75CFB9E
:10201000064604E0FFF758FB801B022809D8386801
:102020008007F7D50EE0C0F800A0FFF74DFB06468D
:1020300005E082E0FFF748FB801B02287DD8386866
:102040008007F7D42078400768D5DFF8CCB10027A7
:102050000BF13C0BDBF80000C0000BD4DBF80010E8
:1020600041F08051CBF80010DBF80000012700F0B0
:10207000805000906B4E3068C00510D4306840F43A
:1020800080703060FFF720FB009005E0FFF71CFB3D
:102090000099401A022850D83068C005F6D55E4E27
:1020A000A0686C3601280FD00528306810D020F0C9
:1020B00001003060306820F004003060A068B8B1E2
:1020C000FFF702FB00900FE0306840F00100F4E7FA
:1020D00040F004003060F7E7FFF7F6FA0099411A84
:1020E00041F28830814266D830688007F4D50EE02E
:1020F000FFF7EAFA009007E0FFF7E6FA0099411AC5
:1021000041F28830814256D830688007F4D42FB12C
:10211000DBF8001021F08051CBF80010A069C8B3A3
:102120003D49091D0968C1F3810102294AD00228ED
:10213000504607D0C8F8600000E03CE0FFF7C4FA62
:1021400004463BE04746C8F86000FFF7BDFA064684
:1021500005E000BFFFF7B8FA801B02282BD82868DB
:102160008001F7D4D4E907010843A16A2E4A49083F
:1021700002EB0141626A41EA8211084394F82C1093
:1021800040EA0161C9F8001001203866FFF79CFAA7
:10219000044606E03EE000BFFFF796FA001B022867
:1021A00009D828688001F7D534E000BFFFF78CFA22
:1021B000001B022802D90320BDE8F88F286880019F
:1021C000F4D427E00128F7D0D9F80000E26900F440
:1021D000800191421CD1226A00F03F01914217D147
:1021E00047F6C071626A0140B1EB821F10D1A26A4A
:1021F0004FF0FF3300F4403103EB5202B1EB024FDA
:1022000006D194F82C1000F07060B0EB016F01D093
:102210000120D1E70020CFE7043802400000474208
:10222000800E4742007000400000FFFF10B5401EC6
:10223000B0F1807F01D3012010BD4FF0E024606138
:102240000F21601700F08BFC0020A06107202061A7
:10225000002010BD70B5040004D094F83D000025A6
:1022600010B106E0012070BD84F83C50204600F01B
:1022700023F8242084F83D002068C16821F400512F
:10228000C160204600F09AFB2068016921F490416A
:1022900001612068416921F02A0141612068C1681B
:1022A00041F40051C1602564202084F83D0084F889
:1022B0003E00002070BD000010B586B00446142119
:1022C0006846FEF752F914492068884221D1134824
:1022D0000021026842F010020260006800F0100065
:1022E00005900E481438026842F00102026000684E
:1022F00000F0010005904FF4C06000900220CDE98D
:102300000101032003900720049069460448FFF769
:10231000E7F806B010BD000000100140443802404C
:10232000000002402DE9F843044690F83D001F46A6
:1023300016460D4620284CD1C5B1BEB194F83C00DC
:10234000012846D0012084F83C004FF00008C4F872
:102350004080212084F83D00FFF7B6F9A68481462D
:10236000E684A068B0F5805F03D004E00120BDE8FA
:10237000F883206928B12E465FF0000584F83C8080
:102380000EE00026FAE78021204600F09DFBA0B970
:10239000AEB116F8010B21684860E08C401EE08465
:1023A000E08C4B464FF0000200970028EBD14FF035
:1023B0004001204600F088FB30B10320D7E735F814
:1023C000020BC0F30800E6E7202084F83D0000205F
:1023D000CDE70220CBE7FEE701684A69D243520508
:1023E0000FD46FF480624A61002140F8301F202230
:1023F00042738173026942F0040202610173012099
:1024000070470020704700002DE9F84F0446C06A6D
:102410001E4693460D4621680A6842F480620A60AF
:10242000082807D0012805D010F5803F02D0206B86
:10243000112804D12068016841F4807101604FF0D7
:1024400001195B46002249462046009600F0C6F876
:102450004FF4007840B120680068C00501D5C4F889
:1024600040800320BDE8F88F2069DFF884A0B0F534
:10247000804F0FD00620216800EAD51747F0F00002
:10248000086133465A460AF10601204600F0DAF8A0
:1024900058BB03E0E8B240F001001CE02168E8B25C
:1024A000086133465A465146204600F0CBF8E0B961
:1024B0002068416981690091016841F4807101607F
:1024C0005B46002249462046009600F087F8002827
:1024D000C1D147F0F1002168086133465A465146A0
:1024E000204600F0AFF80028BCD00120BAE7000079
:1024F00002000100F8B50446C06A1E460D461746A4
:10250000082807D0012805D010F5803F02D0206BA5
:10251000122804D12068016841F4807101601346DB
:1025200000224FF001112046009600F057F840B10C
:1025300020680068C00502D54FF4007020640320B5
:10254000F8BD2069B0F5804F0ED00620216800EA62
:10255000D51040F0F000086133463A460B4920465A
:1025600000F070F878B902E005F0FE0000E0E8B293
:1025700021680861054933463A46891F204600F024
:1025800061F80028DCD00120F8BD0000080001003F
:1025900070B516460D4604460DE02046FFF71CFFB9
:1025A00008B1012070BD681C05D0FFF78DF8801BB5
:1025B000A84207D835B120684069C0434007ECD431
:1025C000002070BD002044F8300F20216173A073FB
:1025D000216941F0200121612073E2E72DE9F047F4
:1025E0001E4690460D460446C1F30747DDF820908D
:1025F00008E0701C06D0FFF767F8A0EB0900B042B6
:102600000FD876B12068012F18D0806925EA000024
:102610000004000C14D000214145EAD00020BDE8A0
:10262000F087002044F8300F20216173A0732169E6
:1026300041F02001216120730120F0E74069E5E7C6
:102640000121E9E72DE9F0479A4691460E460446F6
:1026500000254FF02008C1F3074725E020684069B6
:10266000C043400514D42068016841F40071016042
:1026700021686FF480604861256384F83D8084F8A8
:102680003E50206C40F00400206484F83C501FE071
:10269000B9F1FF3F08D0FFF717F8A0EB0A01494551
:1026A0000CD8B9F1000F09D02068012F13D0806930
:1026B00026EA00000004000C0BD0CFE744F8305F9E
:1026C00084F80D80A573206940F0200020612573F7
:1026D0000120BDE8F0874069EAE72DE9F0410025D7
:1026E00090460E460446202717E04069C043C006C6
:1026F0000CD454F8301B6FF01000486144F81059A6
:102700006777A577206A2062257717E0FEF7DCFF60
:10271000A0EB0800B04208D83EB120684169C94327
:102720004906E2D40020BDE8F08144F8305F6773C9
:10273000A573206940F02000206125730120F2E795
:1027400070B516460D4604460DE02046FFF744FEE0
:1027500008B1012070BD681C05D0FEF7B5FF801BD5
:10276000A84207D835B120684069C0430006ECD4C0
:10277000002070BD002044F8300F20216173A07349
:10278000216941F0200121612073E2E790ED044AC4
:1027900090ED033A90ED082A70EEC40AD0ED072AB6
:1027A000D0ED003A01EE203AD0ED060AF0EE601AC4
:1027B00041EE420A51EE021A71EEE21A41EE422A4D
:1027C00071EEA33AD0ED051A41EE231AD0ED013A8D
:1027D00003EE812A90ED021A71EE814AC1EEA43A0D
:1027E00082EEA41A70EE434AB0EE430AB0EE613AAC
:1027F00003EEA40A03EEE13A80ED030A01EE244A57
:1028000041EE612A01EE602A80ED044A80ED053A2E
:10281000B0EE603A03EEE03A80ED063AC0ED072AEA
:1028200080ED082A7047000030B587B01421684653
:10283000FDF79BFE15480024016841F0800101600E
:10284000016801F080010591016841F0010101601A
:10285000016801F001010591016841F00201016088
:1028600000680B4D00F0020005900022062128466A
:10287000FEF724FF062000900120CDE901046946FF
:1028800028460394FEF72CFE07B030BD30380240D6
:10289000000002400D4810B50B4901600C49416031
:1028A00000214FF480428160C0E9031241618161DF
:1028B000C1610162FEF70EFF002803D0BDE81040A1
:1028C000FEF7F9BD10BD0000005400407C00002060
:1028D000A08601000C4810B50A4901604FF4E131AF
:1028E0004160002181600C22C160C0E90412816155
:1028F000C161FFF7AFFC002803D0BDE81040FEF730
:10290000DABD10BD00100140D0000020FEE7FEE758
:1029100070477047FFF75CB930B593B03021684617
:10292000FDF723FE14210CA8FDF71FFE1D4800240F
:10293000016841F080510160006800F08050119002
:102940001948016821F4404141F4004101600068E8
:10295000022500F4404011900120039010200490C3
:10296000009506950820CDE907405420CDE90905DA
:1029700004200B906846FFF7A3FA08B172B6FEE791
:102980000F20CDE90C054FF48050CDE90E40022117
:102990000CA81094FFF7A8F9002801D072B6FEE742
:1029A00013B030BD4038024000700040024801685A
:1029B00041F470010160704788ED00E070B5044695
:1029C00000680169E26821F4405111430161216905
:1029D000A068E26908436169114308432168CA6835
:1029E00049F20C639A430243CA6020684169A269B4
:1029F00021F440711143416131492068884202D07D
:102A00003049884202D1FFF719FA01E0FFF706FAD0
:102A1000E2690023192164253226B2F5004F62686D
:102A200028D0A0FB0101930F9200FDF72FFC014677
:102A3000B0FBF5F06FF01802504301EB800006EB9D
:102A40000010B0FBF5F000F0F002B1FBF5F002EB86
:102A50000012B1FBF5F06FF01803584301EB800052
:102A600006EB0010B0FBF5F000F00F0021681044F9
:102A7000886070BDA0FB010192185B41FDF706FC68
:102A80000146B0FBF5F00201B1FBF5F06FF0180361
:102A9000584301EB800006EBC000B0FBF5F000F0FE
:102AA000F80002EB4002B1FBF5F0584301EB800067
:102AB00006EBC000B0FBF5F000F00700D6E7000021
:102AC00000100140001401402DE9F04198461746DE
:102AD0000E460446069D1DE0681C1BD02DB1FEF776
:102AE000F3FDA0EB0800A84214D92068C16821F4C6
:102AF000D071C1602068416921F00101416120204D
:102B000084F83D0084F83E00002084F83C00032057
:102B1000BDE8F0812068006836EA000004D000209B
:102B2000B842D9D00020F3E70120F9E7FEE703B46B
:102B300001984100009850EAC12018BF04204A0DB6
:102B400018BF40F0010040F2FF72B2EB515F08BFC6
:102B500040F00200012808BF052002B070470907B5
:102B6000090E002804DB00F1E02080F80014704713
:102B700000F00F0000F1E02080F8141D7047000005
:102B800070B59B482DED020B2DED068B079D25F0B2
:102B90000044A04218DC9748844202DC0AD106981F
:102BA00040B19DED060BBDEC068B02B0BDE8704058
:102BB00000F00BBB002DCCBF9FED8F0B9FED900B5A
:102BC000BDEC068B02B070BD8F48A04215DD8F486A
:102BD000A042D8BF4FF0FF3458DD9DED060B51ECFD
:102BE000100BFFF7A4FF042808BF00F005FB9DEDC4
:102BF000060BBDEC068B02B070BD9DED060B51ECD3
:102C0000100B00F073FBCDE9060181489FED828B2C
:102C1000A0423CDD8248A0421FDD00249FED82AB34
:102C20009DED060B53EC1A2B51EC100B00F090FEAF
:102C30009DED060B41EC190B53EC1A2B51EC100BCC
:102C400001F0CEF853EC182B01F0A0FA53EC192B3D
:102C500000F032FFCDE9060149E09DED060B0124AD
:102C600053EC182B51EC100B00F072FE9DED060B8F
:102C700041EC190B53EC182B51EC100B01F086FAB8
:102C800053EC192B00F018FFCDE906012FE068483E
:102C9000A0421FDD02249FED689B9DED060B53ECC7
:102CA000192B51EC100B01F09BF853EC182B00F092
:102CB0004FFE9DED060B41EC180B53EC192B51EC1C
:102CC000100B01F063FA53EC182B00F0F5FECDE980
:102CD00006010CE09DED060B032453EC102B9FED39
:102CE000580B51EC100B00F0E7FECDE906019DED0D
:102CF000060B53EC102B51EC100B01F071F841EC6A
:102D0000180B53EC182B01F06BF841EC190B4E48E3
:102D10000621B0EE490AF0EE690A784400F0D9F9CC
:102D200053EC182B51EC100B01F05AF841EC180B36
:102D30004648B0EE490AF0EE690A0521784400F0F1
:102D4000C8F953EC192B51EC100B01F049F841EC88
:102D5000100B51EC180B53EC102B002C0EDA00F07A
:102D6000F7FD9DED061B53EC112B01F039F89DED9D
:102D7000061B53EC112B01F031F935E000F0E8FDB2
:102D80009DED061B53EC112B01F02AF841EC100BC2
:102D90002F48784400EBC40090ED001B51EC100B61
:102DA00053EC112B01F0F2F99DED061B53EC112BA6
:102DB00001F0ECF941EC100B2648784400EBC4001C
:102DC00090ED001B51EC100B53EC112B01F006F9A8
:102DD00041EC100B002DA2BFBDEC068B02B070BD04
:102DE00051EC100B00F076FD41EC100B01E70000F8
:102DF000000010440000F07F182D4454FB21F93FDF
:102E0000182D4454FB21F9BF0000DC3F0000203E98
:102E10000000F33F00000000000000000000F03F51
:102E20000000E63F0000000000000000000000403D
:102E30000080034000000000000000000000F83F98
:102E4000000000000000F0BFD2170000881700004B
:102E500012170000CA16000070B56F4E2DED040B5E
:102E60002DED048B82B0DDF824C0DDE907235C4240
:102E70002CF000411C4341EAD474069D22F000402E
:102E8000B44205D86C422C4340EAD474B4420BD906
:102E90009DED081B9DED060B02B0BDEC048B04B04C
:102EA000BDE8704000F09BB9ACF14054A4F17F64E0
:102EB0001C430BD0022404EAAC7444EAD2740543E8
:102EC0009FED578B9FED582B07D015E09DED060B1E
:102ED00051EC100B00F002FA42E0002C11BF012C63
:102EE0009DED060B02B0BDEC048B04BF04B070BDB9
:102EF000022C38D0032C3BD00B439FED4D1B9FED94
:102F00004E0B0AD0B14218D1B04209D121F0804114
:102F100020F08040099107900FE0002A15DA10E0B8
:102F2000474B7B44002C08BF93ED000B0DD0012CC8
:102F300010D0022C17D0032C1AD0B0421DD1002A79
:102F400003DAB0EE410AF0EE610A02B0BDEC048B88
:102F500004B070BD93ED000B51EC100B00F0BAFC07
:102F600041EC100BF1E7B0EE480AF0EE680AECE72E
:102F7000B0EE420AF0EE620AE7E7401A00159FED54
:102F8000329B3C28C8BF8DED000B17DCBCF1000F55
:102F9000BCBF10F13C0F8DED009B0FDB9DED080BCE
:102FA00053EC102B9DED060B51EC100B00F084FD43
:102FB00000F09CF900F092F9CDE90001B4B1012CC8
:102FC00010D0022C9FED220B53EC102B9DED000B2B
:102FD00051EC100B19D001F0D9F853EC182B01F07B
:102FE000D5F8BDE7019880F0004001909DED000B01
:102FF00053EC192B51EC100B00F0B6FE04BF02206D
:10300000FDF722FB9DED000B9FE701F0BFF853ECAD
:10301000182B00F0E3FFA3E70000F07F00000000A2
:10302000182D4454FB210940182D4454FB2109C09C
:10303000182D4454FB21F9BF182D4454FB21F93FAE
:10304000FA15000000000000000000000000000071
:10305000075C143326A6A13C00B52DED048BB0EE21
:10306000409AF0EE609A83B051EC190B00F0C2FF69
:1030700041EC180B18EE100A18EE901A8DED008B2B
:10308000002818BF0120084320F00040C0F17F60F5
:1030900000F1E040C00F14D019EE101A19EE900A9A
:1030A0008DED009B002918BF0121084320F000404E
:1030B000C0F17F6000F1E040C00F04BF0120FDF7C8
:1030C000C3FAB0EE480A03B0F0EE680ABDEC048B18
:1030D00000BD70B504462DED028B4D1E00EBC50002
:1030E000B0EE408AF0EE608A90ED000B35F00600FD
:1030F00017D053EC182B51EC100B00F071FE41EC83
:10310000100B6D1E04EBC50090ED001B51EC100B75
:1031100053EC112B00F01CFC41EC100B35F00600B9
:10312000E7D1022D36D0042D1CD0062D1CBFBDECDE
:10313000028B70BD53EC182B51EC100B00F050FEBD
:1031400094ED0A1B53EC112B00F002FC53EC182BEE
:1031500000F046FE94ED081B53EC112B00F0F8FB39
:1031600041EC100B53EC182B51EC100B00F038FE17
:1031700094ED061B53EC112B00F0EAFB53EC182BDB
:1031800000F02EFE94ED040B53EC102B00F0E0FB4E
:1031900041EC100B53EC182B51EC100B00F020FEFF
:1031A00094ED021B53EC112B00F0D2FB53EC182BC7
:1031B00000F016FE94ED001B53EC112B00F0C8FB41
:1031C000BDEC028B41EC100B70BD10B553EC102B15
:1031D00051EC100B00F0BCFB41EC100B10BD10B516
:1031E00053EC112B51EC100B00F0B2FB41EC100B27
:1031F00010BD0000000000009FED050B10B553EC62
:10320000102B51EC100B00F0EBFD41EC100B10BD3E
:10321000000000000000001030380A2801D2012010
:103220007047002070472DE9FC4781460020884602
:103230000090074606460546044601906946484602
:1032400000F060F8BDF900000744BDF90200064433
:10325000BDF904000544C820FEF730F9641C142CA5
:10326000ECDB97FBF4F0A8F8000096FBF4F0A8F86C
:10327000020095FBF4F0A8F80400BDE8FC8700000C
:103280007CB504460DA00D46006801908DF8053010
:103290004FF4FA708DF806200090032301AAD02184
:1032A0002846FEF7CBFB002806D04FF0FF331B2249
:1032B00003A12046FFF736F87CBD00001C0000008B
:1032C0006932635F6572726F723A20616363656C25
:1032D0005F696E69742829202831290010B541ECF6
:1032E000100BFFF74DFC51EC100B10BD82B0CDE977
:1032F000000121F0004001909DED000B02B051EC67
:10330000100B70477FB506463B200C468DF80C002D
:103310004FF0FF35012303AAD02130460095FEF778
:103320008DFB062301AAD02130460095FEF796FAC0
:10333000BDF8040040BA2080BDF8060040BA6080A5
:10334000BDF8080040BAA0807FBD7FB50646432087
:103350000C468DF80C004FF0FF35012303AAD02155
:1033600030460095FEF76AFB062301AAD0213046BD
:103370000095FEF773FABDF8040040BA2080BDF84E
:10338000060040BA6080BDF8080040BAA0807FBD4A
:103390002DE9FC47814600208846009007460646F6
:1033A00005460446019069464846FFF7CEFFBDF941
:1033B00000000744BDF902000644BDF904000544BD
:1033C000C820FEF77BF8641C142CECDB97FBF4F0B0
:1033D000A8F8000096FBF4F0A8F8020095FBF4F0C2
:1033E000A8F80400BDE8FC877CB50D460EA1044694
:1033F0000968019100208DF805008DF806204FF432
:10340000FA708DF807300090042301AAD0212846D5
:10341000FEF714FB002806D04FF0FF331A2203A159
:103420002046FEF77FFF7CBD190000006932635F14
:103430006572726F723A206779726F5F696E697434
:1034400028292028312900004FF0FF33012905D019
:10345000022907D101220449FEF764BF0249022272
:10346000491CF9E770470000580000202DED088B3B
:1034700096B0FEF7B5FBFFF74FFAFFF7D5F9FFF768
:1034800009FAFFF727FA00200490059006900790AC
:103490001023062272497348FFF7A6FF0823022271
:1034A0006F497048FFF7ECFE04A96D48FFF770FF05
:1034B00006A96B48FFF7B7FEDFED6BBA9FED6B9B7C
:1034C0006C4C04F11806351DFEF7FEF800EE100AEC
:1034D00002A96348B8EE400A70EE480AB0EE408A8E
:1034E00080EEABBAFFF70EFFBDF80800BDF818106C
:1034F000401AADF80800BDF80A00BDF81A10401ACD
:10350000ADF80A00BDF80C00BDF81C10401A00F51B
:103510000050ADF80C0011A902A800F07DF9694631
:103520004F48FFF712FFBDF80000BDF81010B7EECE
:10353000000A401AADF80000BDF80200BDF81210F4
:103540000EAA401AADF80200BDF80400BDF8141030
:10355000401AADF804006946414800F0BBF89DED03
:10356000110ADDED130A20EE000A00EEA00A10EEAB
:10357000100A00F0F5FE41EC100BFFF76DFDB0EE08
:1035800040AAF0EE60AA129800F0EAFE41EC100B9F
:10359000B0EE4A1AF0EE6A1AFFF75EFC53EC192BF4
:1035A00051EC100B00F01CFC00F0A0F99DED120A8C
:1035B000DDED130A08EE900A20EE000A00EEA00AE4
:1035C00010EE100A00F0CCFE41EC100BFFF744FDAA
:1035D000B0EE40AA9DED110AF0EE60AAB1EE400AED
:1035E00010EE100A00F0BCFE41EC100BB0EE4A1ACF
:1035F000F0EE6A1AFFF730FC53EC192B51EC100B6C
:1036000000F0EEFB00F072F900EE100ADDED0F0A9B
:10361000B0EE4B1A1848FFF7B9F884ED070A1648C0
:10362000DDED0E0AB0EE4B1AB0EE680A2438FFF753
:10363000ADF884ED060AC820FDF740FF3146094881
:1036400000F01EF80DA1074800F034F8294605489F
:1036500000F016F801210348FFF7F6FE34E70000FA
:103660007C000020D000002000007A44F8C1631ADA
:10367000DCA54C405C000020240000202C00000051
:103680003EB50446086800F06BFE41EC100B08A143
:1036900053EC102B6846FCF771FE6846FCF746FFBA
:1036A00082B24FF0FF3369462046FEF73BFE3EBD37
:1036B0002566000070B505460C460846FCF736FF47
:1036C00082B221462846BDE870404FF0FF33FEF736
:1036D00029BE000070B514462DED0C8BF0EE408A2B
:1036E0000D46B1F9000000EE100AF8EEC00A9FED99
:1036F000438A18EE900A80EE880ABDEEC00AB8EE42
:10370000C00A20EE089A00F02BFE41EC1B0B19EECC
:10371000100A00F025FE9FED3AAB53EC1A2B00F097
:103720005FFB53EC1B2B00F05BFB9FED37BB53ECB7
:103730001B2B00F055FB9FED36CB53EC1C2B00F000
:10374000BBF900F0D3F82060B5F9020000EE100AD2
:1037500018EE900AF8EEC00A80EE880ABDEEC00AA4
:10376000B8EEC00A20EE089A00F0FAFD41EC1D0BFD
:1037700019EE100A00F0F4FD53EC1A2B00F030FBA8
:1037800053EC1D2B00F02CFB53EC1B2B00F028FB03
:1037900053EC1C2B00F090F900F0A8F86060B5F92C
:1037A000040000EE100A18EE900AF8EEC00A80EE4F
:1037B000880ABDEEC00AB8EEC00A20EE088A00F002
:1037C000CFFD41EC190B18EE100A00F0C9FD53ECC7
:1037D0001A2B00F005FB53EC192B00F001FB53EC06
:1037E0001B2B00F0FDFA53EC1C2B00F065F900F0E8
:1037F0007DF8A060BDEC0C8B70BD00000000C842DD
:103800000000000000409F3F000000000080664074
:103810006E861BF0F9210940B0F9002000EE102A55
:10382000B8EEC01A9FED1E0AC1EE000AFDEEE00AD6
:10383000F8EEE00A20EE801ADFED1A0A61EE201A97
:10384000B1EE001A61EE811AC1ED001AB0F9022042
:1038500001EE902AB8EEE12AC2EE001AFDEEE11A5E
:10386000F8EEE11A61EE801A61EEA01A61EE811A9B
:10387000C1ED011AB0F9040001EE900AB8EEE12A98
:10388000C2EE001AFDEEE11AF8EEE11A21EE800A0E
:1038900020EE200A20EE010A81ED020A70470000A6
:1038A0000000C8420000003810B500290AD008788E
:1038B000002807D005487844FCF77EFE002801D098
:1038C000002010BD0248784410BD0000260D000005
:1038D0001E0D000081F00041704780F000407047ED
:1038E00021F00041704720F00040704721F0004275
:1038F000A2F16052B2F5801F01F0004328BFD2F15F
:103900007F6C0BD95FEA001C43EAC20242EB5070A5
:1039100018BF704728BF20F001007047B2F5801F24
:10392000BCBF184670474FEA410C1CF5001F02D27D
:10393000084600F08BBD70B500F0FCFA000000896D
:10394000FFF7F6BF4FF00040A0F580007047000081
:1039500010B591EA030F48BF83F0004300F11E84C5
:10396000841A71EB030C05D2121943EB0C03001BF4
:1039700061EB0C01DFF824E14FEA1154A4EB135C76
:103980001EEA430F18BF9EEA445F73D023EA0E037A
:10399000DCF1200E21EA045143F4801332D322FAE1
:1039A0000CFE10EB0E0023FA0CFE41EB0E01CCF1E5
:1039B000200E03FA0EFE10EB0E0051F10001B1F5DE
:1039C000801FCCF1200E32D201EB045112FA0EF21C
:1039D000BDE8104058BF7047401C38BF5FEA420244
:1039E00018BF7047002814BF20F0010041F100010A
:1039F0004FEA410313F5001F38BF7047A1F1C041E2
:103A000000F0E6BA012A43EB0302ACF1200CDCF132
:103A10001F0E32BF4FF0000E23FA0CF310EB030021
:103A200041EB0451B4EB115FD0D0A1EB045101F58F
:103A3000801149085FEA300001EB04510ED350F1C8
:103A4000000038BF12FA0EFE08D1BDE81040C9E7E9
:103A5000401C38BF5FEA4202CAD1C3E7BDE810404C
:103A60004FEA410313F5001F38BF7047A1F1C04171
:103A700000F0AEBA9EEA445F08D011EA5E0FBDE8DE
:103A8000104004BF01F0004100207047BDE8104025
:103A900070B500F04FFA00BF64FBBE3E0000E0FFCF
:103AA000491058BFC1F140415B1058BFC3F14043BA
:103AB0008B42EFF3008070472DE9C04130B4DFF84E
:103AC000A0C23CEA111418BF3CEA131400F0EC80C9
:103AD00081EA03051CEA111444EAD57418BF1CEAF4
:103AE000131500F0C780A4EB05044FF0004545EA2C
:103AF000C12145EAC32341EA505143EA525304F13C
:103B00007F74994204F500344FEAC0204FEAC22284
:103B100008BF904200F09C804FEA13650FF24016F8
:103B2000765D4FEA134506FB05F7C7F1807706FB84
:103B300007F74FEAD737A7FB03687642C8F5803806
:103B4000A7FB06CE38BFA8F1010807FB08E64FF037
:103B5000000EA6FB028CE6FB03CEDCF1000CCEF1DE
:103B6000004E38BFAEF1010EA6FB0C584FF0000717
:103B70004FF00005E6FB0E87A1FB08C6A0FB07CEB1
:103B800016EB0E0645F10005E1FB076515F1E04E69
:103B90007EBFA4F580345FEA46066D4116F18007CA
:103BA00045F100054FEA17274FEA066647EA056721
:103BB000A6F1DE46B6F1805F4FEA15251FD93846DB
:103BC00024F0010C05EBC471BCF1FE6F01EB0C118C
:103BD00002D8F0BCBDE8008124425CBF01F5801E24
:103BE0009EEAC47F02D4F0BCBDE80081244238D4F0
:103BF000F0BCA1F1C041BDE8004100F0E9B94FEAD5
:103C0000D22242EA43524FEAD323A7FB02864FEA6D
:103C1000D02040EA415007FB03661EEA0E0F4FEA30
:103C2000D12105FB026658BFA6EB0056B6EB005645
:103C30004FEA520E4EEAC37E18EB0E0E56EB530EB1
:103C4000BDD518EB02085E417F1C55F10005B6E7B3
:103C50004FF480154FF000074FF000064FF00008BA
:103C6000ADE7F0BC4FF0000001F1C04101F00041B0
:103C7000BDE8008111EA0C1F0CEA131500D00CE01E
:103C800013EA0C1F00F025804FF00000F0BC81EA21
:103C9000030101F00041BDE80081F0BCBDE8004136
:103CA00081EA030100F094B9F0BCBDE8004170B5B1
:103CB00000F040F9097EFC3E00F007B881EA0301FC
:103CC0004FF0000001F00041704781EA030100F06D
:103CD0007FB9F0BCBDE800414FF0000021497047BA
:103CE000FFFDFBF9F7F5F4F2F0EEEDEBE9E8E6E4C1
:103CF000E3E1E0DEDDDBDAD8D7D5D4D3D1D0CFCD48
:103D0000CCCBCAC8C7C6C5C4C2C1C0BFBEBDBCBB80
:103D1000BAB9B8B7B6B5B4B3B2B1B0AFAEADACAB7B
:103D2000AAA9A8A8A7A6A5A4A3A3A2A1A09F9F9E55
:103D30009D9C9C9B9A999998979796959594939307
:103D4000929191908F8F8E8E8D8C8C8B8B8A89899E
:103D50008888878786858584848383828281818021
:103D60000000FF070000F87F51EA030C17D41CF590
:103D7000801F58BFBCF5801F00F10680994218BF14
:103D8000704708BF9042704707D711F5801F58BF92
:103D900013F5801F19D499427047894270471CF56A
:103DA000801F08D5BCF5801FF7D58B4218BF704720
:103DB00008BF824270474FF4001C1CEB410F38BF14
:103DC0001CEB430F01D28B42704770B500F0B2F884
:103DD000922449004FF000514FF08053FFF760BE2E
:103DE000DFF848C170B51CEA111E1EBF1CEA13158E
:103DF0009EEA0C0F95EA0C0F00F06F8081EA030435
:103E000023EA4C134EEAD47E21EA4C1141F480118E
:103E100043F48013AE44A1FB024CA0FB0365AEF15A
:103E20007F7E361955EB0C05A1FB034C4CF10003CA
:103E3000A0FB021C16EB0C06654153F1000309427E
:103E400018BF46F0010613F4007F0BD14FEA03318F
:103E50004FEA0530340341EA155140EA16506FF03D
:103E600003020AE04FEAC3214FEAC520F40241EA07
:103E7000555140EA56506FF0020202EB2E4201EB20
:103E8000025585EACE710AD05FEA440C18BF24F0CF
:103E9000004450F1000041F1000120EAD47040F2EA
:103EA000FE7C624500D270BDA84214BF4FF0804432
:103EB0004FF04044002E08BF0024BEF1806FA8BF21
:103EC000A1F1C041BDE8704080F282804FF0000057
:103ED00001F1C04101F0004170479EEA0C0F0CEA6D
:103EE000131518BF95EA0C0F06D04FF0000081EAB9
:103EF000030E0EF0004170BD00F01CF88900013E79
:103F000000F007B800F009B84FEA430C5FEA5C5CC8
:103F100008D081EA030100F05BB84FEA410C5FEA88
:103F20005C5CF6D14FF00000014970470000FF07CC
:103F30000000F87F0EF1020E2EF0030E5EF8046B07
:103F4000364205D4012A43EB030515F5001F12D8AC
:103F5000012841EB010C1CF5001F0CD80ED14FEAD3
:103F6000D17C15F5001F0CEB4C0C0CF1020C08BFBA
:103F70004CEBD37C04E04FF0080C01E04FEAD37C1B
:103F80000CEB4C0526FA05F606F00706B6F1040C14
:103F900006D20EEB860CBDE870404CF0010C604779
:103FA000DFE80CF0090B02024FF000414FF0000077
:103FB000A1F5002170BD19461046012851EB0104FE
:103FC00018BFD4F5001484BF002001F0004170BD7B
:103FD0000808A0F500114FEA3101704791EA030F7C
:103FE00010B581F000413FF5BBAC83F0004300F019
:103FF000D5B800002DE9F04101F5801CBCF5001F8B
:10400000C0F2A9804FEA115C21EA0C510CF1FD0CC1
:1040100041F480115FEA5C0C0CF5C07C01D34000D8
:10402000494130A4890241EA905187028E0E0A0C60
:10403000A45D04FB04F602FB06F6C6F14046A4FBB1
:104040000662F60D46EA422606FB06F4A4FB0123AF
:104050005242C3F1404338BF5B1EA6FB024200241C
:10406000E6FB0324D20B42EA4446A6FB0623A1FB4F
:1040700002E2A3FB07E4E3FB61426442C2F1404E6B
:1040800038BFAEF1010EA6FB04234FF00002E6FBA1
:104090000E32A2FB03463400E2FB6264A1FB06E69B
:1040A000A4FB07E8E4FB61687642C8F1405838BFDA
:1040B000A8F10108A2FB06E4A3FB08E5E2FB6854B3
:1040C000A1FB05E6A7FB04E8E1FB648618F12005E7
:1040D00056F10006A809A8F11B08B10908F03F082D
:1040E000B8F10A0F40EA86601CD901EB0C51BDE81B
:1040F000F08100BFFCF5EEE8E2DDD8D3CFCBC7C33B
:10410000C0BDB9B6B4B1AEACA9A7A5A3A19F9D9BF4
:104110009A9896959392908F8D8C8B8988878685B7
:1041200084838281A0FB006800FB01F208EB420857
:10413000B8EB872807D5341858EB0104D5D5401CB7
:1041400051F10001D1E7341A78EB0104CDD4401EBF
:1041500071F10001C9E75FEA4C0C5FEA9C5C0DD18C
:1041600005D34FF0000001F00041BDE8F081BDE84B
:10417000F04170B5FFF7DEFE6DDBFFBEBDE8F0413C
:104180004FF00000004970470000F87F10B591EA39
:10419000030F48BF83F000433FF5E2AB841A71EB95
:1041A000030C07D212198CF0004C43EB0C03001BDC
:1041B00061EB0C01DFF8A4E14FEA1154A4EB135CAE
:1041C0001EEA430F18BF9EEA445F00F0B08023EA66
:1041D0006E03524221EA0451C3EB6E0338BF5B1EEB
:1041E000DCF1200E25D322FA0CFE10EB0E0043FA70
:1041F0000CFE41EB0E01CCF1200E03FA0EFE10EB8B
:104200000E0051F10001CCF1200E29D412FA0EF269
:1042100001EB0451BDE8104058BF7047401C1CBF63
:10422000B2F1004F704700280CBF491C20F001007C
:10423000704712EB020E43EB030218BF4FF0010E62
:104240004EEA4202ACF1200CDCF11E0E54D943FAC6
:104250000CFE10EB0E0051F1FF31CCF11E0ED5D546
:104260000EF1010E12FA0EFE404141EB010101EB8D
:10427000445C5FEA5C5C10D910EBDE7001EB04512A
:1042800038BFBEF1004FBDE8104018BF704700288E
:104290000CBF491C20F00100704730D24FEAD42CEB
:1042A00011F5001124F400641BD0B1FA81F20B3A2D
:1042B000A41AA41ED2F12003914030FA03F319434B
:1042C000904001EBCC71002C01EB0451BDE8104093
:1042D000A8BF704701F1C0414FF0000001F000415C
:1042E0007047B0FA80F310FA03F100D110BDE41A60
:1042F000173C4805C90AE4E701EB045110BD491019
:1043000001EB0451BDE810404FEA300002E04FF0ED
:10431000000170474A0008BF0042F8D0B2F5001F04
:1043200028BF704701F000414FF0000070479EEA3F
:10433000445F07D011EA5E0FBDE8104004BF0021C2
:1043400000207047BDE8104070B5FFF7F3FD00BFD7
:1043500040DFF63E83F00041104670470000E0FF6A
:1043600043004FEAD30C4FEA3C0C43401FBF4007C9
:104370000CF1605113F0FE4F70471CF0006F03D139
:1043800000200CF0004170470CF0004343EA5070ED
:1043900010B540EACC0000F00EF800BF000000921B
:1043A0004FEA0001FFF714BE4FF000414FF000004C
:1043B000A1F5002170470EF1020E2EF0030E5EF8FB
:1043C000044B244204D44FEA4102B2F17F4F11D88A
:1043D0004FEA4003B3F17F4F0CD80ED14FEAD07CA7
:1043E000B2F17F4F0CEB4C0C0CF1020C08BF4CEB04
:1043F000D17C04E04FF0080C01E04FEAD17C0CEBDB
:104400004C0324FA03F404F00704B4F1040C06D2BC
:104410000EEB840CBDE810404CF0010C6047DFE867
:104420000CF0070802024FF00040A0F5800010BD1C
:104430000846420018BFD2F1807288BF00F00040E9
:1044400010BD4FF04070E1EE100A7047FF2141EAC5
:10445000D050C0057047FCF7D6B90000000000003E
:104460000000010203040607080900000000010221
:104470000304040000080000000000000002000126
:1044800000001000000000004FBB610567ACDD3F7D
:10449000182D4454FB21E93F9BF681D20B73EF3F6B
:1044A000182D4454FB21F93FE2652F227F2B7A3CE3
:1044B000075C143326A6813CBDCBF07A8807703C9C
:1044C000075C143326A6913CC4EB98999999C9BF0F
:1044D000711623FEC671BCBF6D9A74AFF2B0B3BF44
:1044E0009AFDDE522DDEADBF2F6C6A2C44B4A2BF04
:1044F0000D5555555555D53FFF8300922449C23F70
:104500006E204CC5CD45B73F513DD0A0660DB13FA3
:10451000EB0D76244B7BA93F11DA22E33AAD903FB5
:10452000000000000000000002400000000000A0A9
:104530000000000005400000000000C8000000006E
:104540000C4000000000409C0000000019400000EA
:104550000020BCBE0000000034400000BFC91B8E1C
:1045600000000004B5400000504BCFD06607E2CFFA
:10457000010000006C4100003E8251AADFEEA7342A
:1045800001000000D9420000DCB5A0E23A301F97DC
:10459000FFFFFFFFB4450000FD25A0C8E9A3C14F00
:1045A000FFFFFFFFFF3F0000000000800000000051
:1045B000FF3F00000000008000000000F8450008F8
:1045C000000000205C000000D001000854460008F4
:1045D0005C0000201C070000EC0100081C0000002B
:1045E00043000000F8FFFFFF0C0000000E00000079
:1045F0000F0000002E000000C5200040C520004034
:10460000A69B443B000000000000000000000000EA
:10461000000000000000000000000000C520004075
:10462000C5200040A69B443B0000000000000000A5
:10463000000000000000000000000000000000007A
:104640000100000010000000000000000024F40041
:044650000A0D0A0045
:040000050800019559
:00000001FF
